{
  "_format": "hh-sol-artifact-1",
  "contractName": "FocusTracker",
  "sourceName": "contracts/FocusTracker.sol",
  "abi": [
    {
      "inputs": [],
      "name": "logSession",
      "outputs": [],
      "stateMutability": "nonpayable",
      "type": "function"
    },
    {
      "inputs": [
        {
          "internalType": "address",
          "name": "",
          "type": "address"
        }
      ],
      "name": "userFocusMinutes",
      "outputs": [
        {
          "internalType": "uint256",
          "name": "",
          "type": "uint256"
        }
      ],
      "stateMutability": "view",
      "type": "function"
    }
  ],
  "bytecode": "0x608060405234801561001057600080fd5b50610242806100206000396000f3fe608060405234801561001057600080fd5b50600436106100365760003560e01c8063583e6aec1461003b5780638c2668f21461006b575b600080fd5b61005560048036038101906100509190610148565b610075565b604051610062919061018e565b60405180910390f35b61007361008d565b005b60006020528060005260406000206000915090505481565b60196000803373ffffffffffffffffffffffffffffffffffffffff1673ffffffffffffffffffffffffffffffffffffffff16815260200190815260200160002060008282546100dc91906101d8565b92505081905550565b600080fd5b600073ffffffffffffffffffffffffffffffffffffffff82169050919050565b6000610115826100ea565b9050919050565b6101258161010a565b811461013057600080fd5b50565b6000813590506101428161011c565b92915050565b60006020828403121561015e5761015d6100e5565b5b600061016c84828501610133565b91505092915050565b6000819050919050565b61018881610175565b82525050565b60006020820190506101a3600083018461017f565b92915050565b7f4e487b7100000000000000000000000000000000000000000000000000000000600052601160045260246000fd5b60006101e382610175565b91506101ee83610175565b9250828201905080821115610206576102056101a9565b5b9291505056fea26469706673582212205e0f2177980427b1bc76f499ee950a0f0d67613846d53b4421be108e4e7a57ca64736f6c63430008180033",
  "linkReferences": {},
  "deployedLinkReferences": {}
}